{
  "contractName": "sendEther",
  "abi": [
    {
      "constant": true,
      "inputs": [],
      "name": "player",
      "outputs": [
        {
          "name": "",
          "type": "address"
        }
      ],
      "payable": false,
      "stateMutability": "view",
      "type": "function"
    },
    {
      "constant": true,
      "inputs": [],
      "name": "team",
      "outputs": [
        {
          "name": "",
          "type": "address"
        }
      ],
      "payable": false,
      "stateMutability": "view",
      "type": "function"
    },
    {
      "constant": true,
      "inputs": [],
      "name": "transactionAmount",
      "outputs": [
        {
          "name": "",
          "type": "uint256"
        }
      ],
      "payable": false,
      "stateMutability": "view",
      "type": "function"
    },
    {
      "inputs": [
        {
          "name": "_player",
          "type": "address"
        }
      ],
      "payable": true,
      "stateMutability": "payable",
      "type": "constructor"
    },
    {
      "anonymous": false,
      "inputs": [
        {
          "indexed": false,
          "name": "message",
          "type": "string"
        }
      ],
      "name": "LogString",
      "type": "event"
    },
    {
      "anonymous": false,
      "inputs": [
        {
          "indexed": false,
          "name": "message",
          "type": "string"
        },
        {
          "indexed": false,
          "name": "number",
          "type": "uint256"
        }
      ],
      "name": "LogSU",
      "type": "event"
    }
  ],
  "bytecode": "0x606060405260405160208061087783398101604052808051906020019091905050336000806101000a81548173ffffffffffffffffffffffffffffffffffffffff021916908373ffffffffffffffffffffffffffffffffffffffff16021790555080600160006101000a81548173ffffffffffffffffffffffffffffffffffffffff021916908373ffffffffffffffffffffffffffffffffffffffff160217905550346002819055506100c36100ca64010000000002610180176401000000009004565b50506103c3565b6000806000809054906101000a900473ffffffffffffffffffffffffffffffffffffffff1673ffffffffffffffffffffffffffffffffffffffff163373ffffffffffffffffffffffffffffffffffffffff1614151561012857600080fd5b600090506002546000809054906101000a900473ffffffffffffffffffffffffffffffffffffffff1673ffffffffffffffffffffffffffffffffffffffff163110151561032d57600160009054906101000a900473ffffffffffffffffffffffffffffffffffffffff1673ffffffffffffffffffffffffffffffffffffffff166108fc6002549081150290604051600060405180830381858888f1935050505015156101d357600080fd5b600190507fee101bfc1beb067a3b9d5748a3fbbb96ccdba24417a8ff20ae342844695623346000809054906101000a900473ffffffffffffffffffffffffffffffffffffffff1673ffffffffffffffffffffffffffffffffffffffff163160405180806020018381526020018281038252600c8152602001807f5465616d2042616c616e636500000000000000000000000000000000000000008152506020019250505060405180910390a17fee101bfc1beb067a3b9d5748a3fbbb96ccdba24417a8ff20ae34284469562334600160009054906101000a900473ffffffffffffffffffffffffffffffffffffffff1673ffffffffffffffffffffffffffffffffffffffff163160405180806020018381526020018281038252600e8152602001807f506c617965722042616c616e63650000000000000000000000000000000000008152506020019250505060405180910390a16103bc565b7fa95e6e2a182411e7a6f9ed114a85c3761d87f9b8f453d842c71235aa64fff99f6040518080602001828103825260298152602001807f5465616d20646f65736e2774206861766520656e6f7567682066756e6473207481526020017f6f2070726f63656564000000000000000000000000000000000000000000000081525060400191505060405180910390a15b8091505090565b6104a5806103d26000396000f300606060405260043610610057576000357c0100000000000000000000000000000000000000000000000000000000900463ffffffff16806348db5f891461005c57806385f2aef2146100b1578063d942bffa14610106575b600080fd5b341561006757600080fd5b61006f61012f565b604051808273ffffffffffffffffffffffffffffffffffffffff1673ffffffffffffffffffffffffffffffffffffffff16815260200191505060405180910390f35b34156100bc57600080fd5b6100c4610155565b604051808273ffffffffffffffffffffffffffffffffffffffff1673ffffffffffffffffffffffffffffffffffffffff16815260200191505060405180910390f35b341561011157600080fd5b61011961017a565b6040518082815260200191505060405180910390f35b600160009054906101000a900473ffffffffffffffffffffffffffffffffffffffff1681565b6000809054906101000a900473ffffffffffffffffffffffffffffffffffffffff1681565b60025481565b6000806000809054906101000a900473ffffffffffffffffffffffffffffffffffffffff1673ffffffffffffffffffffffffffffffffffffffff163373ffffffffffffffffffffffffffffffffffffffff161415156101de57600080fd5b600090506002546000809054906101000a900473ffffffffffffffffffffffffffffffffffffffff1673ffffffffffffffffffffffffffffffffffffffff16311015156103e357600160009054906101000a900473ffffffffffffffffffffffffffffffffffffffff1673ffffffffffffffffffffffffffffffffffffffff166108fc6002549081150290604051600060405180830381858888f19350505050151561028957600080fd5b600190507fee101bfc1beb067a3b9d5748a3fbbb96ccdba24417a8ff20ae342844695623346000809054906101000a900473ffffffffffffffffffffffffffffffffffffffff1673ffffffffffffffffffffffffffffffffffffffff163160405180806020018381526020018281038252600c8152602001807f5465616d2042616c616e636500000000000000000000000000000000000000008152506020019250505060405180910390a17fee101bfc1beb067a3b9d5748a3fbbb96ccdba24417a8ff20ae34284469562334600160009054906101000a900473ffffffffffffffffffffffffffffffffffffffff1673ffffffffffffffffffffffffffffffffffffffff163160405180806020018381526020018281038252600e8152602001807f506c617965722042616c616e63650000000000000000000000000000000000008152506020019250505060405180910390a1610472565b7fa95e6e2a182411e7a6f9ed114a85c3761d87f9b8f453d842c71235aa64fff99f6040518080602001828103825260298152602001807f5465616d20646f65736e2774206861766520656e6f7567682066756e6473207481526020017f6f2070726f63656564000000000000000000000000000000000000000000000081525060400191505060405180910390a15b80915050905600a165627a7a72305820331aac3ef042419d51b6e81454dad47de47005f98918b0702d124424625ce6880029",
  "source": "pragma solidity 0.4.18;\r\n\r\ncontract sendEther {\r\n    address public team;\r\n    address public player;\r\n    \r\n    uint public transactionAmount;\r\n    \r\n    modifier isOwner() {\r\n        require(msg.sender == team);\r\n        _;\r\n    }\r\n    \r\n    event LogString(string message);\r\n    event LogSU(string message, uint number);\r\n\r\n    function sendEther(address _player) public payable {\r\n        team = msg.sender;\r\n        player = _player;\r\n        transactionAmount = msg.value;\r\n\r\n        transfer();\r\n    }\r\n\r\n    function transfer() private isOwner returns (bool) {\r\n        bool success = false;\r\n        \r\n        if(team.balance >= transactionAmount) {\r\n\r\n            if (!player.send(transactionAmount)) {\r\n                revert();\r\n            } else {\r\n                success = true;\r\n            }\r\n            \r\n            LogSU(\"Team Balance\", team.balance);\r\n            LogSU(\"Player Balance\", player.balance);\r\n        } else {\r\n            LogString(\"Team doesn't have enough funds to proceed\");\r\n        }\r\n        \r\n        return success;\r\n    }\r\n}   ",
  "sourcePath": "D:\\Projects\\EthereumOraclizedTeamPlayerContract\\contracts\\sendEther.sol",
  "compiler": {
    "name": "solc",
    "version": "0.4.18+commit.9cf6e910.Emscripten.clang"
  },
  "schemaVersion": "1.0.1",
  "updatedAt": "2018-01-28T11:18:09.699Z"
}