{
  "contractName": "TeamPlayer",
  "abi": [
    {
      "constant": true,
      "inputs": [],
      "name": "team",
      "outputs": [
        {
          "name": "",
          "type": "address"
        }
      ],
      "payable": false,
      "stateMutability": "view",
      "type": "function"
    },
    {
      "constant": false,
      "inputs": [
        {
          "name": "_player",
          "type": "address"
        },
        {
          "name": "amount",
          "type": "uint256"
        }
      ],
      "name": "transfer",
      "outputs": [
        {
          "name": "",
          "type": "bool"
        }
      ],
      "payable": false,
      "stateMutability": "nonpayable",
      "type": "function"
    },
    {
      "inputs": [],
      "payable": true,
      "stateMutability": "payable",
      "type": "constructor"
    },
    {
      "anonymous": false,
      "inputs": [
        {
          "indexed": false,
          "name": "message",
          "type": "string"
        }
      ],
      "name": "LogString",
      "type": "event"
    },
    {
      "anonymous": false,
      "inputs": [
        {
          "indexed": false,
          "name": "message",
          "type": "string"
        },
        {
          "indexed": false,
          "name": "number",
          "type": "uint256"
        }
      ],
      "name": "LogSU",
      "type": "event"
    }
  ],
  "bytecode": "0x6060604052336000806101000a81548173ffffffffffffffffffffffffffffffffffffffff021916908373ffffffffffffffffffffffffffffffffffffffff160217905550610811806100536000396000f30060606040526004361061004c576000357c0100000000000000000000000000000000000000000000000000000000900463ffffffff16806385f2aef214610051578063a9059cbb146100a6575b600080fd5b341561005c57600080fd5b610064610100565b604051808273ffffffffffffffffffffffffffffffffffffffff1673ffffffffffffffffffffffffffffffffffffffff16815260200191505060405180910390f35b34156100b157600080fd5b6100e6600480803573ffffffffffffffffffffffffffffffffffffffff16906020019091908035906020019091905050610125565b604051808215151515815260200191505060405180910390f35b6000809054906101000a900473ffffffffffffffffffffffffffffffffffffffff1681565b6000806000809054906101000a900473ffffffffffffffffffffffffffffffffffffffff1673ffffffffffffffffffffffffffffffffffffffff163373ffffffffffffffffffffffffffffffffffffffff1614151561018357600080fd5b83600160006101000a81548173ffffffffffffffffffffffffffffffffffffffff021916908373ffffffffffffffffffffffffffffffffffffffff160217905550600090507fa95e6e2a182411e7a6f9ed114a85c3761d87f9b8f453d842c71235aa64fff99f6040518080602001828103825260118152602001807f5374617274696e67205472616e7366657200000000000000000000000000000081525060200191505060405180910390a17fee101bfc1beb067a3b9d5748a3fbbb96ccdba24417a8ff20ae34284469562334836040518080602001838152602001828103825260128152602001807f5472616e73616374696f6e20416d6f756e7400000000000000000000000000008152506020019250505060405180910390a17fee101bfc1beb067a3b9d5748a3fbbb96ccdba24417a8ff20ae342844695623346000809054906101000a900473ffffffffffffffffffffffffffffffffffffffff1673ffffffffffffffffffffffffffffffffffffffff163160405180806020018381526020018281038252600c8152602001807f5465616d2042616c616e636500000000000000000000000000000000000000008152506020019250505060405180910390a17fee101bfc1beb067a3b9d5748a3fbbb96ccdba24417a8ff20ae34284469562334600160009054906101000a900473ffffffffffffffffffffffffffffffffffffffff1673ffffffffffffffffffffffffffffffffffffffff163160405180806020018381526020018281038252600e8152602001807f506c617965722042616c616e63650000000000000000000000000000000000008152506020019250505060405180910390a1826000809054906101000a900473ffffffffffffffffffffffffffffffffffffffff1673ffffffffffffffffffffffffffffffffffffffff163110151561074c577fa95e6e2a182411e7a6f9ed114a85c3761d87f9b8f453d842c71235aa64fff99f6040518080602001828103825260208152602001807f5465616d2068617320656e6f7567682066756e647320746f2070726f6365656481525060200191505060405180910390a1600160009054906101000a900473ffffffffffffffffffffffffffffffffffffffff1673ffffffffffffffffffffffffffffffffffffffff166108fc849081150290604051600060405180830381858888f19350505050151561058a577fa95e6e2a182411e7a6f9ed114a85c3761d87f9b8f453d842c71235aa64fff99f6040518080602001828103825260378152602001807f5465616d20686173204661696c656420746f2073656e642066756e647320617381526020017f2061206c61636b206f662067617320726571756972656400000000000000000081525060400191505060405180910390a1600080fd5b7fa95e6e2a182411e7a6f9ed114a85c3761d87f9b8f453d842c71235aa64fff99f6040518080602001828103825260178152602001807f5472616e73666572206973205375636365737366756c2100000000000000000081525060200191505060405180910390a1600190507fee101bfc1beb067a3b9d5748a3fbbb96ccdba24417a8ff20ae342844695623346000809054906101000a900473ffffffffffffffffffffffffffffffffffffffff1673ffffffffffffffffffffffffffffffffffffffff163160405180806020018381526020018281038252600c8152602001807f5465616d2042616c616e636500000000000000000000000000000000000000008152506020019250505060405180910390a17fee101bfc1beb067a3b9d5748a3fbbb96ccdba24417a8ff20ae34284469562334600160009054906101000a900473ffffffffffffffffffffffffffffffffffffffff1673ffffffffffffffffffffffffffffffffffffffff163160405180806020018381526020018281038252600e8152602001807f506c617965722042616c616e63650000000000000000000000000000000000008152506020019250505060405180910390a16107db565b7fa95e6e2a182411e7a6f9ed114a85c3761d87f9b8f453d842c71235aa64fff99f6040518080602001828103825260298152602001807f5465616d20646f65736e2774206861766520656e6f7567682066756e6473207481526020017f6f2070726f63656564000000000000000000000000000000000000000000000081525060400191505060405180910390a15b80915050929150505600a165627a7a72305820dd8d8521d7c235523d65a17bba4ceeb73a9f1943b125c780bca068c8d44f28a50029",
  "source": "pragma solidity ^0.4.18;\r\n\r\ncontract TeamPlayer {\r\n    address public team;\r\n    address private player;\r\n\r\n    modifier isOwner() {\r\n        require(msg.sender == team);\r\n        _;\r\n    }\r\n    \r\n    event LogString(string message);\r\n    event LogSU(string message, uint number);\r\n    \r\n    function TeamPlayer() public payable {\r\n        team = msg.sender;\r\n    }\r\n\r\n    function transfer(address _player,uint amount) public isOwner returns (bool) {\r\n        player = _player;\r\n        bool success = false;\r\n        \r\n        LogString(\"Starting Transfer\");\r\n        LogSU(\"Transaction Amount\", amount);\r\n        LogSU(\"Team Balance\", team.balance);\r\n        LogSU(\"Player Balance\", player.balance);\r\n        \r\n        if(team.balance >= amount) {\r\n            LogString(\"Team has enough funds to proceed\");\r\n\r\n            if (!player.send(amount)) {\r\n                LogString(\"Team has Failed to send funds as a lack of gas required\");\r\n                revert();\r\n            } else {\r\n                LogString(\"Transfer is Successful!\");\r\n                success = true;\r\n            }\r\n            \r\n            LogSU(\"Team Balance\", team.balance);\r\n            LogSU(\"Player Balance\", player.balance);\r\n        } else {\r\n            LogString(\"Team doesn't have enough funds to proceed\");\r\n        }\r\n        \r\n        return success;\r\n    }\r\n}   ",
  "sourcePath": "D:\\Projects\\EthereumOraclizedTeamPlayerContract\\contracts\\TeamPlayer.sol",
  "compiler": {
    "name": "solc",
    "version": "0.4.18+commit.9cf6e910.Emscripten.clang"
  },
  "schemaVersion": "1.0.1",
  "updatedAt": "2018-01-26T09:44:40.931Z"
}