{
  "contractName": "TeamPlayer",
  "abi": [
    {
      "constant": false,
      "inputs": [
        {
          "name": "myid",
          "type": "bytes32"
        },
        {
          "name": "result",
          "type": "string"
        }
      ],
      "name": "__callback",
      "outputs": [],
      "payable": false,
      "stateMutability": "nonpayable",
      "type": "function"
    },
    {
      "constant": false,
      "inputs": [
        {
          "name": "myid",
          "type": "bytes32"
        },
        {
          "name": "result",
          "type": "string"
        },
        {
          "name": "proof",
          "type": "bytes"
        }
      ],
      "name": "__callback",
      "outputs": [],
      "payable": false,
      "stateMutability": "nonpayable",
      "type": "function"
    },
    {
      "constant": true,
      "inputs": [],
      "name": "team",
      "outputs": [
        {
          "name": "",
          "type": "address"
        }
      ],
      "payable": false,
      "stateMutability": "view",
      "type": "function"
    },
    {
      "inputs": [
        {
          "name": "_player",
          "type": "address"
        }
      ],
      "payable": true,
      "stateMutability": "payable",
      "type": "constructor"
    },
    {
      "anonymous": false,
      "inputs": [
        {
          "indexed": false,
          "name": "message",
          "type": "string"
        }
      ],
      "name": "LogString",
      "type": "event"
    },
    {
      "anonymous": false,
      "inputs": [
        {
          "indexed": false,
          "name": "message",
          "type": "string"
        },
        {
          "indexed": false,
          "name": "number",
          "type": "uint256"
        }
      ],
      "name": "LogSU",
      "type": "event"
    }
  ],
  "bytecode": "0x6060604052670de0b6b3a764000060075560405160208062003af38339810160405280805190602001909190505033600560006101000a81548173ffffffffffffffffffffffffffffffffffffffff021916908373ffffffffffffffffffffffffffffffffffffffff16021790555080600660006101000a81548173ffffffffffffffffffffffffffffffffffffffff021916908373ffffffffffffffffffffffffffffffffffffffff160217905550620000cd620000d46401000000000262001f67176401000000009004565b5062001a61565b600560009054906101000a900473ffffffffffffffffffffffffffffffffffffffff1673ffffffffffffffffffffffffffffffffffffffff163373ffffffffffffffffffffffffffffffffffffffff161415156200013157600080fd5b7fee101bfc1beb067a3b9d5748a3fbbb96ccdba24417a8ff20ae342844695623343073ffffffffffffffffffffffffffffffffffffffff16316040518080602001838152602001828103825260108152602001807f436f6e74726163742042616c616e6365000000000000000000000000000000008152506020019250505060405180910390a1620001d86000620001da6401000000000262000904176401000000009004565b565b3073ffffffffffffffffffffffffffffffffffffffff1631620002466040805190810160405280600381526020017f55524c00000000000000000000000000000000000000000000000000000000008152506200050d6401000000000262000bf1176401000000009004565b111562000307577fa95e6e2a182411e7a6f9ed114a85c3761d87f9b8f453d842c71235aa64fff99f60405180806020018281038252604b8152602001807f4f7261636c697a6520717565727920776173204e4f542073656e742c20706c6581526020017f6173652061646420736f6d652045544820746f20636f76657220666f7220746881526020017f652071756572792066656500000000000000000000000000000000000000000081525060600191505060405180910390a16200050a565b7fa95e6e2a182411e7a6f9ed114a85c3761d87f9b8f453d842c71235aa64fff99f6040518080602001828103825260358152602001807f4f7261636c697a65207175657279207761732073656e742c207374616e64696e81526020017f6720627920666f722074686520616e737765722e2e000000000000000000000081525060400191505060405180910390a1801562000456576200044f600a6040805190810160405280600381526020017f55524c0000000000000000000000000000000000000000000000000000000000815250606060405190810160405280602b81526020017f687474703a2f2f746573742d626c6f636b636861696e2e67657473616e64626f81526020017f782e636f6d2f7374617465000000000000000000000000000000000000000000815250620008cd6401000000000262000f79176401000000009004565b5062000509565b620005076040805190810160405280600381526020017f55524c0000000000000000000000000000000000000000000000000000000000815250606060405190810160405280602b81526020017f687474703a2f2f746573742d626c6f636b636861696e2e67657473616e64626f81526020017f782e636f6d2f737461746500000000000000000000000000000000000000000081525062000e5164010000000002620014bb176401000000009004565b505b5b50565b6000806000809054906101000a900473ffffffffffffffffffffffffffffffffffffffff1673ffffffffffffffffffffffffffffffffffffffff1614806200059457506000620005926000809054906101000a900473ffffffffffffffffffffffffffffffffffffffff16620013d564010000000002620019fd176401000000009004565b145b15620005bc57620005ba6000620013e06401000000000262001a08176401000000009004565b505b6000809054906101000a900473ffffffffffffffffffffffffffffffffffffffff1673ffffffffffffffffffffffffffffffffffffffff166338cc48316000604051602001526040518163ffffffff167c0100000000000000000000000000000000000000000000000000000000028152600401602060405180830381600087803b15156200064a57600080fd5b6102c65a03f115156200065c57600080fd5b5050506040518051905073ffffffffffffffffffffffffffffffffffffffff16600160009054906101000a900473ffffffffffffffffffffffffffffffffffffffff1673ffffffffffffffffffffffffffffffffffffffff16141515620007a8576000809054906101000a900473ffffffffffffffffffffffffffffffffffffffff1673ffffffffffffffffffffffffffffffffffffffff166338cc48316000604051602001526040518163ffffffff167c0100000000000000000000000000000000000000000000000000000000028152600401602060405180830381600087803b15156200074b57600080fd5b6102c65a03f115156200075d57600080fd5b50505060405180519050600160006101000a81548173ffffffffffffffffffffffffffffffffffffffff021916908373ffffffffffffffffffffffffffffffffffffffff1602179055505b600160009054906101000a900473ffffffffffffffffffffffffffffffffffffffff1673ffffffffffffffffffffffffffffffffffffffff1663524f3889836000604051602001526040518263ffffffff167c01000000000000000000000000000000000000000000000000000000000281526004018080602001828103825283818151815260200191508051906020019080838360005b838110156200085d57808201518184015260208101905062000840565b50505050905090810190601f1680156200088b5780820380516001836020036101000a031916815260200191505b5092505050602060405180830381600087803b1515620008aa57600080fd5b6102c65a03f11515620008bc57600080fd5b505050604051805190509050919050565b60008060008060009054906101000a900473ffffffffffffffffffffffffffffffffffffffff1673ffffffffffffffffffffffffffffffffffffffff1614806200095657506000620009546000809054906101000a900473ffffffffffffffffffffffffffffffffffffffff16620013d564010000000002620019fd176401000000009004565b145b156200097e576200097c6000620013e06401000000000262001a08176401000000009004565b505b6000809054906101000a900473ffffffffffffffffffffffffffffffffffffffff1673ffffffffffffffffffffffffffffffffffffffff166338cc48316000604051602001526040518163ffffffff167c0100000000000000000000000000000000000000000000000000000000028152600401602060405180830381600087803b151562000a0c57600080fd5b6102c65a03f1151562000a1e57600080fd5b5050506040518051905073ffffffffffffffffffffffffffffffffffffffff16600160009054906101000a900473ffffffffffffffffffffffffffffffffffffffff1673ffffffffffffffffffffffffffffffffffffffff1614151562000b6a576000809054906101000a900473ffffffffffffffffffffffffffffffffffffffff1673ffffffffffffffffffffffffffffffffffffffff166338cc48316000604051602001526040518163ffffffff167c0100000000000000000000000000000000000000000000000000000000028152600401602060405180830381600087803b151562000b0d57600080fd5b6102c65a03f1151562000b1f57600080fd5b50505060405180519050600160006101000a81548173ffffffffffffffffffffffffffffffffffffffff021916908373ffffffffffffffffffffffffffffffffffffffff1602179055505b600160009054906101000a900473ffffffffffffffffffffffffffffffffffffffff1673ffffffffffffffffffffffffffffffffffffffff1663524f3889856000604051602001526040518263ffffffff167c01000000000000000000000000000000000000000000000000000000000281526004018080602001828103825283818151815260200191508051906020019080838360005b8381101562000c1f57808201518184015260208101905062000c02565b50505050905090810190601f16801562000c4d5780820380516001836020036101000a031916815260200191505b5092505050602060405180830381600087803b151562000c6c57600080fd5b6102c65a03f1151562000c7e57600080fd5b50505060405180519050905062030d403a02670de0b6b3a76400000181111562000caf576000600102915062000e49565b600160009054906101000a900473ffffffffffffffffffffffffffffffffffffffff1673ffffffffffffffffffffffffffffffffffffffff1663adf59f99828787876000604051602001526040518563ffffffff167c0100000000000000000000000000000000000000000000000000000000028152600401808481526020018060200180602001838103835285818151815260200191508051906020019080838360005b8381101562000d7157808201518184015260208101905062000d54565b50505050905090810190601f16801562000d9f5780820380516001836020036101000a031916815260200191505b50838103825284818151815260200191508051906020019080838360005b8381101562000dda57808201518184015260208101905062000dbd565b50505050905090810190601f16801562000e085780820380516001836020036101000a031916815260200191505b50955050505050506020604051808303818588803b151562000e2957600080fd5b6125ee5a03f1151562000e3b57600080fd5b505050506040518051905091505b509392505050565b60008060008060009054906101000a900473ffffffffffffffffffffffffffffffffffffffff1673ffffffffffffffffffffffffffffffffffffffff16148062000eda5750600062000ed86000809054906101000a900473ffffffffffffffffffffffffffffffffffffffff16620013d564010000000002620019fd176401000000009004565b145b1562000f025762000f006000620013e06401000000000262001a08176401000000009004565b505b6000809054906101000a900473ffffffffffffffffffffffffffffffffffffffff1673ffffffffffffffffffffffffffffffffffffffff166338cc48316000604051602001526040518163ffffffff167c0100000000000000000000000000000000000000000000000000000000028152600401602060405180830381600087803b151562000f9057600080fd5b6102c65a03f1151562000fa257600080fd5b5050506040518051905073ffffffffffffffffffffffffffffffffffffffff16600160009054906101000a900473ffffffffffffffffffffffffffffffffffffffff1673ffffffffffffffffffffffffffffffffffffffff16141515620010ee576000809054906101000a900473ffffffffffffffffffffffffffffffffffffffff1673ffffffffffffffffffffffffffffffffffffffff166338cc48316000604051602001526040518163ffffffff167c0100000000000000000000000000000000000000000000000000000000028152600401602060405180830381600087803b15156200109157600080fd5b6102c65a03f11515620010a357600080fd5b50505060405180519050600160006101000a81548173ffffffffffffffffffffffffffffffffffffffff021916908373ffffffffffffffffffffffffffffffffffffffff1602179055505b600160009054906101000a900473ffffffffffffffffffffffffffffffffffffffff1673ffffffffffffffffffffffffffffffffffffffff1663524f3889856000604051602001526040518263ffffffff167c01000000000000000000000000000000000000000000000000000000000281526004018080602001828103825283818151815260200191508051906020019080838360005b83811015620011a357808201518184015260208101905062001186565b50505050905090810190601f168015620011d15780820380516001836020036101000a031916815260200191505b5092505050602060405180830381600087803b1515620011f057600080fd5b6102c65a03f115156200120257600080fd5b50505060405180519050905062030d403a02670de0b6b3a764000001811115620012335760006001029150620013ce565b600160009054906101000a900473ffffffffffffffffffffffffffffffffffffffff1673ffffffffffffffffffffffffffffffffffffffff1663adf59f9982600087876000604051602001526040518563ffffffff167c0100000000000000000000000000000000000000000000000000000000028152600401808481526020018060200180602001838103835285818151815260200191508051906020019080838360005b83811015620012f6578082015181840152602081019050620012d9565b50505050905090810190601f168015620013245780820380516001836020036101000a031916815260200191505b50838103825284818151815260200191508051906020019080838360005b838110156200135f57808201518184015260208101905062001342565b50505050905090810190601f1680156200138d5780820380516001836020036101000a031916815260200191505b50955050505050506020604051808303818588803b1515620013ae57600080fd5b6125ee5a03f11515620013c057600080fd5b505050506040518051905091505b5092915050565b6000813b9050919050565b600062001400620014076401000000000262001a19176401000000009004565b9050919050565b6000806200143d731d3b2638a7cc9f2cb3d298a3da7a90b67e5506ed620013d564010000000002620019fd176401000000009004565b1115620014f657731d3b2638a7cc9f2cb3d298a3da7a90b67e5506ed6000806101000a81548173ffffffffffffffffffffffffffffffffffffffff021916908373ffffffffffffffffffffffffffffffffffffffff160217905550620014ec6040805190810160405280600b81526020017f6574685f6d61696e6e6574000000000000000000000000000000000000000000815250620019966401000000000262001ea8176401000000009004565b6001905062001993565b60006200152b73c03a2615d5efaf5f49f60b7bb6583eaec212fdf1620013d564010000000002620019fd176401000000009004565b1115620015e45773c03a2615d5efaf5f49f60b7bb6583eaec212fdf16000806101000a81548173ffffffffffffffffffffffffffffffffffffffff021916908373ffffffffffffffffffffffffffffffffffffffff160217905550620015da6040805190810160405280600c81526020017f6574685f726f707374656e330000000000000000000000000000000000000000815250620019966401000000000262001ea8176401000000009004565b6001905062001993565b60006200161973b7a07bcf2ba2f2703b24c0691b5278999c59ac7e620013d564010000000002620019fd176401000000009004565b1115620016d25773b7a07bcf2ba2f2703b24c0691b5278999c59ac7e6000806101000a81548173ffffffffffffffffffffffffffffffffffffffff021916908373ffffffffffffffffffffffffffffffffffffffff160217905550620016c86040805190810160405280600981526020017f6574685f6b6f76616e0000000000000000000000000000000000000000000000815250620019966401000000000262001ea8176401000000009004565b6001905062001993565b60006200170773146500cfd35b22e4a392fe0adc06de1a1368ed48620013d564010000000002620019fd176401000000009004565b1115620017c05773146500cfd35b22e4a392fe0adc06de1a1368ed486000806101000a81548173ffffffffffffffffffffffffffffffffffffffff021916908373ffffffffffffffffffffffffffffffffffffffff160217905550620017b66040805190810160405280600b81526020017f6574685f72696e6b656279000000000000000000000000000000000000000000815250620019966401000000000262001ea8176401000000009004565b6001905062001993565b6000620017f5736f485c8bf6fc43ea212e93bbf8ce046c7f1cb475620013d564010000000002620019fd176401000000009004565b11156200185a57736f485c8bf6fc43ea212e93bbf8ce046c7f1cb4756000806101000a81548173ffffffffffffffffffffffffffffffffffffffff021916908373ffffffffffffffffffffffffffffffffffffffff1602179055506001905062001993565b60006200188f7320e12a1f859b3feae5fb2a0a32c18f5a65555bbf620013d564010000000002620019fd176401000000009004565b1115620018f4577320e12a1f859b3feae5fb2a0a32c18f5a65555bbf6000806101000a81548173ffffffffffffffffffffffffffffffffffffffff021916908373ffffffffffffffffffffffffffffffffffffffff1602179055506001905062001993565b6000620019297351efaf4c8b3c9afbd5ab9f4bbc82784ab6ef8faa620013d564010000000002620019fd176401000000009004565b11156200198e577351efaf4c8b3c9afbd5ab9f4bbc82784ab6ef8faa6000806101000a81548173ffffffffffffffffffffffffffffffffffffffff021916908373ffffffffffffffffffffffffffffffffffffffff1602179055506001905062001993565b600090505b90565b8060029080519060200190620019ae929190620019b2565b5050565b828054600181600116156101000203166002900490600052602060002090601f016020900481019282601f10620019f557805160ff191683800117855562001a26565b8280016001018555821562001a26579182015b8281111562001a2557825182559160200191906001019062001a08565b5b50905062001a35919062001a39565b5090565b62001a5e91905b8082111562001a5a57600081600090555060010162001a40565b5090565b90565b6120828062001a716000396000f300606060405260043610610057576000357c0100000000000000000000000000000000000000000000000000000000900463ffffffff16806327dc297e1461005c57806338bbfa50146100c657806385f2aef214610173575b600080fd5b341561006757600080fd5b6100c460048080356000191690602001909190803590602001908201803590602001908080601f016020809104026020016040519081016040528093929190818152602001838380828437820191505050505050919050506101c8565b005b34156100d157600080fd5b61017160048080356000191690602001909190803590602001908201803590602001908080601f0160208091040260200160405190810160405280939291908181526020018383808284378201915050505050509190803590602001908201803590602001908080601f016020809104026020016040519081016040528093929190818152602001838380828437820191505050505050919050506101f3565b005b341561017e57600080fd5b6101866101f8565b604051808273ffffffffffffffffffffffffffffffffffffffff1673ffffffffffffffffffffffffffffffffffffffff16815260200191505060405180910390f35b6101d18161021e565b156101e4576101de6102da565b506101ef565b6101ee6001610904565b5b5050565b505050565b600560009054906101000a900473ffffffffffffffffffffffffffffffffffffffff1681565b6000806000905060405180807f7b0a2020227374617465223a20747275650a7d000000000000000000000000008152506013019050604051809103902060001916836040518082805190602001908083835b6020831015156102955780518252602082019150602081019050602083039250610270565b6001836020036101000a03801982511681845116808217855250505050505090500191505060405180910390206000191614156102d157600190505b80915050919050565b600080600090507fa95e6e2a182411e7a6f9ed114a85c3761d87f9b8f453d842c71235aa64fff99f6040518080602001828103825260118152602001807f5374617274696e67205472616e7366657200000000000000000000000000000081525060200191505060405180910390a17fee101bfc1beb067a3b9d5748a3fbbb96ccdba24417a8ff20ae342844695623346007546040518080602001838152602001828103825260128152602001807f5472616e73616374696f6e20416d6f756e7400000000000000000000000000008152506020019250505060405180910390a17fee101bfc1beb067a3b9d5748a3fbbb96ccdba24417a8ff20ae34284469562334600560009054906101000a900473ffffffffffffffffffffffffffffffffffffffff1673ffffffffffffffffffffffffffffffffffffffff163160405180806020018381526020018281038252600c8152602001807f5465616d2042616c616e636500000000000000000000000000000000000000008152506020019250505060405180910390a17fee101bfc1beb067a3b9d5748a3fbbb96ccdba24417a8ff20ae34284469562334600660009054906101000a900473ffffffffffffffffffffffffffffffffffffffff1673ffffffffffffffffffffffffffffffffffffffff163160405180806020018381526020018281038252600e8152602001807f506c617965722042616c616e63650000000000000000000000000000000000008152506020019250505060405180910390a1600754600560009054906101000a900473ffffffffffffffffffffffffffffffffffffffff1673ffffffffffffffffffffffffffffffffffffffff163110151561086e577fa95e6e2a182411e7a6f9ed114a85c3761d87f9b8f453d842c71235aa64fff99f6040518080602001828103825260208152602001807f5465616d2068617320656e6f7567682066756e647320746f2070726f6365656481525060200191505060405180910390a1600660009054906101000a900473ffffffffffffffffffffffffffffffffffffffff1673ffffffffffffffffffffffffffffffffffffffff166108fc6007549081150290604051600060405180830381858888f1935050505015156106ab577fa95e6e2a182411e7a6f9ed114a85c3761d87f9b8f453d842c71235aa64fff99f6040518080602001828103825260378152602001807f5465616d20686173204661696c656420746f2073656e642066756e647320617381526020017f2061206c61636b206f662067617320726571756972656400000000000000000081525060400191505060405180910390a1600080fd5b7fa95e6e2a182411e7a6f9ed114a85c3761d87f9b8f453d842c71235aa64fff99f6040518080602001828103825260178152602001807f5472616e73666572206973205375636365737366756c2100000000000000000081525060200191505060405180910390a1600190507fee101bfc1beb067a3b9d5748a3fbbb96ccdba24417a8ff20ae34284469562334600560009054906101000a900473ffffffffffffffffffffffffffffffffffffffff1673ffffffffffffffffffffffffffffffffffffffff163160405180806020018381526020018281038252600c8152602001807f5465616d2042616c616e636500000000000000000000000000000000000000008152506020019250505060405180910390a17fee101bfc1beb067a3b9d5748a3fbbb96ccdba24417a8ff20ae34284469562334600660009054906101000a900473ffffffffffffffffffffffffffffffffffffffff1673ffffffffffffffffffffffffffffffffffffffff163160405180806020018381526020018281038252600e8152602001807f506c617965722042616c616e63650000000000000000000000000000000000008152506020019250505060405180910390a16108fd565b7fa95e6e2a182411e7a6f9ed114a85c3761d87f9b8f453d842c71235aa64fff99f6040518080602001828103825260298152602001807f5465616d20646f65736e2774206861766520656e6f7567682066756e6473207481526020017f6f2070726f63656564000000000000000000000000000000000000000000000081525060400191505060405180910390a15b8091505090565b3073ffffffffffffffffffffffffffffffffffffffff163161095a6040805190810160405280600381526020017f55524c0000000000000000000000000000000000000000000000000000000000815250610bf1565b1115610a19577fa95e6e2a182411e7a6f9ed114a85c3761d87f9b8f453d842c71235aa64fff99f60405180806020018281038252604b8152602001807f4f7261636c697a6520717565727920776173204e4f542073656e742c20706c6581526020017f6173652061646420736f6d652045544820746f20636f76657220666f7220746881526020017f652071756572792066656500000000000000000000000000000000000000000081525060600191505060405180910390a1610bee565b7fa95e6e2a182411e7a6f9ed114a85c3761d87f9b8f453d842c71235aa64fff99f6040518080602001828103825260358152602001807f4f7261636c697a65207175657279207761732073656e742c207374616e64696e81526020017f6720627920666f722074686520616e737765722e2e000000000000000000000081525060400191505060405180910390a18015610b5057610b4a600a6040805190810160405280600381526020017f55524c0000000000000000000000000000000000000000000000000000000000815250606060405190810160405280602b81526020017f687474703a2f2f746573742d626c6f636b636861696e2e67657473616e64626f81526020017f782e636f6d2f7374617465000000000000000000000000000000000000000000815250610f79565b50610bed565b610beb6040805190810160405280600381526020017f55524c0000000000000000000000000000000000000000000000000000000000815250606060405190810160405280602b81526020017f687474703a2f2f746573742d626c6f636b636861696e2e67657473616e64626f81526020017f782e636f6d2f73746174650000000000000000000000000000000000000000008152506114bb565b505b5b50565b6000806000809054906101000a900473ffffffffffffffffffffffffffffffffffffffff1673ffffffffffffffffffffffffffffffffffffffff161480610c6157506000610c5f6000809054906101000a900473ffffffffffffffffffffffffffffffffffffffff166119fd565b145b15610c7257610c706000611a08565b505b6000809054906101000a900473ffffffffffffffffffffffffffffffffffffffff1673ffffffffffffffffffffffffffffffffffffffff166338cc48316000604051602001526040518163ffffffff167c0100000000000000000000000000000000000000000000000000000000028152600401602060405180830381600087803b1515610cff57600080fd5b6102c65a03f11515610d1057600080fd5b5050506040518051905073ffffffffffffffffffffffffffffffffffffffff16600160009054906101000a900473ffffffffffffffffffffffffffffffffffffffff1673ffffffffffffffffffffffffffffffffffffffff16141515610e59576000809054906101000a900473ffffffffffffffffffffffffffffffffffffffff1673ffffffffffffffffffffffffffffffffffffffff166338cc48316000604051602001526040518163ffffffff167c0100000000000000000000000000000000000000000000000000000000028152600401602060405180830381600087803b1515610dfd57600080fd5b6102c65a03f11515610e0e57600080fd5b50505060405180519050600160006101000a81548173ffffffffffffffffffffffffffffffffffffffff021916908373ffffffffffffffffffffffffffffffffffffffff1602179055505b600160009054906101000a900473ffffffffffffffffffffffffffffffffffffffff1673ffffffffffffffffffffffffffffffffffffffff1663524f3889836000604051602001526040518263ffffffff167c01000000000000000000000000000000000000000000000000000000000281526004018080602001828103825283818151815260200191508051906020019080838360005b83811015610f0c578082015181840152602081019050610ef1565b50505050905090810190601f168015610f395780820380516001836020036101000a031916815260200191505b5092505050602060405180830381600087803b1515610f5757600080fd5b6102c65a03f11515610f6857600080fd5b505050604051805190509050919050565b60008060008060009054906101000a900473ffffffffffffffffffffffffffffffffffffffff1673ffffffffffffffffffffffffffffffffffffffff161480610feb57506000610fe96000809054906101000a900473ffffffffffffffffffffffffffffffffffffffff166119fd565b145b15610ffc57610ffa6000611a08565b505b6000809054906101000a900473ffffffffffffffffffffffffffffffffffffffff1673ffffffffffffffffffffffffffffffffffffffff166338cc48316000604051602001526040518163ffffffff167c0100000000000000000000000000000000000000000000000000000000028152600401602060405180830381600087803b151561108957600080fd5b6102c65a03f1151561109a57600080fd5b5050506040518051905073ffffffffffffffffffffffffffffffffffffffff16600160009054906101000a900473ffffffffffffffffffffffffffffffffffffffff1673ffffffffffffffffffffffffffffffffffffffff161415156111e3576000809054906101000a900473ffffffffffffffffffffffffffffffffffffffff1673ffffffffffffffffffffffffffffffffffffffff166338cc48316000604051602001526040518163ffffffff167c0100000000000000000000000000000000000000000000000000000000028152600401602060405180830381600087803b151561118757600080fd5b6102c65a03f1151561119857600080fd5b50505060405180519050600160006101000a81548173ffffffffffffffffffffffffffffffffffffffff021916908373ffffffffffffffffffffffffffffffffffffffff1602179055505b600160009054906101000a900473ffffffffffffffffffffffffffffffffffffffff1673ffffffffffffffffffffffffffffffffffffffff1663524f3889856000604051602001526040518263ffffffff167c01000000000000000000000000000000000000000000000000000000000281526004018080602001828103825283818151815260200191508051906020019080838360005b8381101561129657808201518184015260208101905061127b565b50505050905090810190601f1680156112c35780820380516001836020036101000a031916815260200191505b5092505050602060405180830381600087803b15156112e157600080fd5b6102c65a03f115156112f257600080fd5b50505060405180519050905062030d403a02670de0b6b3a76400000181111561132157600060010291506114b3565b600160009054906101000a900473ffffffffffffffffffffffffffffffffffffffff1673ffffffffffffffffffffffffffffffffffffffff1663adf59f99828787876000604051602001526040518563ffffffff167c0100000000000000000000000000000000000000000000000000000000028152600401808481526020018060200180602001838103835285818151815260200191508051906020019080838360005b838110156113e15780820151818401526020810190506113c6565b50505050905090810190601f16801561140e5780820380516001836020036101000a031916815260200191505b50838103825284818151815260200191508051906020019080838360005b8381101561144757808201518184015260208101905061142c565b50505050905090810190601f1680156114745780820380516001836020036101000a031916815260200191505b50955050505050506020604051808303818588803b151561149457600080fd5b6125ee5a03f115156114a557600080fd5b505050506040518051905091505b509392505050565b60008060008060009054906101000a900473ffffffffffffffffffffffffffffffffffffffff1673ffffffffffffffffffffffffffffffffffffffff16148061152d5750600061152b6000809054906101000a900473ffffffffffffffffffffffffffffffffffffffff166119fd565b145b1561153e5761153c6000611a08565b505b6000809054906101000a900473ffffffffffffffffffffffffffffffffffffffff1673ffffffffffffffffffffffffffffffffffffffff166338cc48316000604051602001526040518163ffffffff167c0100000000000000000000000000000000000000000000000000000000028152600401602060405180830381600087803b15156115cb57600080fd5b6102c65a03f115156115dc57600080fd5b5050506040518051905073ffffffffffffffffffffffffffffffffffffffff16600160009054906101000a900473ffffffffffffffffffffffffffffffffffffffff1673ffffffffffffffffffffffffffffffffffffffff16141515611725576000809054906101000a900473ffffffffffffffffffffffffffffffffffffffff1673ffffffffffffffffffffffffffffffffffffffff166338cc48316000604051602001526040518163ffffffff167c0100000000000000000000000000000000000000000000000000000000028152600401602060405180830381600087803b15156116c957600080fd5b6102c65a03f115156116da57600080fd5b50505060405180519050600160006101000a81548173ffffffffffffffffffffffffffffffffffffffff021916908373ffffffffffffffffffffffffffffffffffffffff1602179055505b600160009054906101000a900473ffffffffffffffffffffffffffffffffffffffff1673ffffffffffffffffffffffffffffffffffffffff1663524f3889856000604051602001526040518263ffffffff167c01000000000000000000000000000000000000000000000000000000000281526004018080602001828103825283818151815260200191508051906020019080838360005b838110156117d85780820151818401526020810190506117bd565b50505050905090810190601f1680156118055780820380516001836020036101000a031916815260200191505b5092505050602060405180830381600087803b151561182357600080fd5b6102c65a03f1151561183457600080fd5b50505060405180519050905062030d403a02670de0b6b3a76400000181111561186357600060010291506119f6565b600160009054906101000a900473ffffffffffffffffffffffffffffffffffffffff1673ffffffffffffffffffffffffffffffffffffffff1663adf59f9982600087876000604051602001526040518563ffffffff167c0100000000000000000000000000000000000000000000000000000000028152600401808481526020018060200180602001838103835285818151815260200191508051906020019080838360005b83811015611924578082015181840152602081019050611909565b50505050905090810190601f1680156119515780820380516001836020036101000a031916815260200191505b50838103825284818151815260200191508051906020019080838360005b8381101561198a57808201518184015260208101905061196f565b50505050905090810190601f1680156119b75780820380516001836020036101000a031916815260200191505b50955050505050506020604051808303818588803b15156119d757600080fd5b6125ee5a03f115156119e857600080fd5b505050506040518051905091505b5092915050565b6000813b9050919050565b6000611a12611a19565b9050919050565b600080611a39731d3b2638a7cc9f2cb3d298a3da7a90b67e5506ed6119fd565b1115611ada57731d3b2638a7cc9f2cb3d298a3da7a90b67e5506ed6000806101000a81548173ffffffffffffffffffffffffffffffffffffffff021916908373ffffffffffffffffffffffffffffffffffffffff160217905550611ad16040805190810160405280600b81526020017f6574685f6d61696e6e6574000000000000000000000000000000000000000000815250611ea8565b60019050611ea5565b6000611af973c03a2615d5efaf5f49f60b7bb6583eaec212fdf16119fd565b1115611b9a5773c03a2615d5efaf5f49f60b7bb6583eaec212fdf16000806101000a81548173ffffffffffffffffffffffffffffffffffffffff021916908373ffffffffffffffffffffffffffffffffffffffff160217905550611b916040805190810160405280600c81526020017f6574685f726f707374656e330000000000000000000000000000000000000000815250611ea8565b60019050611ea5565b6000611bb973b7a07bcf2ba2f2703b24c0691b5278999c59ac7e6119fd565b1115611c5a5773b7a07bcf2ba2f2703b24c0691b5278999c59ac7e6000806101000a81548173ffffffffffffffffffffffffffffffffffffffff021916908373ffffffffffffffffffffffffffffffffffffffff160217905550611c516040805190810160405280600981526020017f6574685f6b6f76616e0000000000000000000000000000000000000000000000815250611ea8565b60019050611ea5565b6000611c7973146500cfd35b22e4a392fe0adc06de1a1368ed486119fd565b1115611d1a5773146500cfd35b22e4a392fe0adc06de1a1368ed486000806101000a81548173ffffffffffffffffffffffffffffffffffffffff021916908373ffffffffffffffffffffffffffffffffffffffff160217905550611d116040805190810160405280600b81526020017f6574685f72696e6b656279000000000000000000000000000000000000000000815250611ea8565b60019050611ea5565b6000611d39736f485c8bf6fc43ea212e93bbf8ce046c7f1cb4756119fd565b1115611d9c57736f485c8bf6fc43ea212e93bbf8ce046c7f1cb4756000806101000a81548173ffffffffffffffffffffffffffffffffffffffff021916908373ffffffffffffffffffffffffffffffffffffffff16021790555060019050611ea5565b6000611dbb7320e12a1f859b3feae5fb2a0a32c18f5a65555bbf6119fd565b1115611e1e577320e12a1f859b3feae5fb2a0a32c18f5a65555bbf6000806101000a81548173ffffffffffffffffffffffffffffffffffffffff021916908373ffffffffffffffffffffffffffffffffffffffff16021790555060019050611ea5565b6000611e3d7351efaf4c8b3c9afbd5ab9f4bbc82784ab6ef8faa6119fd565b1115611ea0577351efaf4c8b3c9afbd5ab9f4bbc82784ab6ef8faa6000806101000a81548173ffffffffffffffffffffffffffffffffffffffff021916908373ffffffffffffffffffffffffffffffffffffffff16021790555060019050611ea5565b600090505b90565b8060029080519060200190611ebe929190611ec2565b5050565b828054600181600116156101000203166002900490600052602060002090601f016020900481019282601f10611f0357805160ff1916838001178555611f31565b82800160010185558215611f31579182015b82811115611f30578251825591602001919060010190611f15565b5b509050611f3e9190611f42565b5090565b611f6491905b80821115611f60576000816000905550600101611f48565b5090565b90565b600560009054906101000a900473ffffffffffffffffffffffffffffffffffffffff1673ffffffffffffffffffffffffffffffffffffffff163373ffffffffffffffffffffffffffffffffffffffff16141515611fc357600080fd5b7fee101bfc1beb067a3b9d5748a3fbbb96ccdba24417a8ff20ae342844695623343073ffffffffffffffffffffffffffffffffffffffff16316040518080602001838152602001828103825260108152602001807f436f6e74726163742042616c616e6365000000000000000000000000000000008152506020019250505060405180910390a16120546000610904565b5600a165627a7a723058206b58df73742331754500ea350eb79237cc7a75ade4bb3098a17281ee0a6427ef0029",
  "source": "pragma solidity ^0.4.18;\r\n\r\nimport \"./usingOraclize.sol\";\r\n\r\ncontract TeamPlayer is usingOraclize {\r\n    address public team;\r\n    address private player;\r\n    \r\n    uint transactionAmount = 1000000000000000000;\r\n    \r\n    modifier isOwner() {\r\n        require(msg.sender == team);\r\n        _;\r\n    }\r\n    \r\n    event LogString(string message);\r\n    event LogSU(string message, uint number);\r\n    \r\n    function TeamPlayer(address _player) public payable {\r\n        team = msg.sender;\r\n        player = _player;\r\n        \r\n        requestTransfer();\r\n    }\r\n    \r\n    function requestTransfer() private isOwner {\r\n        LogSU(\"Contract Balance\", this.balance);\r\n        \r\n        sendOralizedQuery(false);\r\n    }\r\n    \r\n    function sendOralizedQuery(bool periodical) private {\r\n        if (oraclize_getPrice(\"URL\") > this.balance) {\r\n            LogString(\"Oraclize query was NOT sent, please add some ETH to cover for the query fee\");\r\n        } else {\r\n            LogString(\"Oraclize query was sent, standing by for the answer..\");\r\n            \r\n            if (periodical) {\r\n                oraclize_query(10, \"URL\", \"http://test-blockchain.getsandbox.com/state\");\r\n            } else {\r\n                oraclize_query(\"URL\", \"http://test-blockchain.getsandbox.com/state\");\r\n            }\r\n        }\r\n    }\r\n    \r\n    function __callback(bytes32 myid, string result) public {\r\n        if(convertStringToBoolean(result)) {\r\n            transfer();\r\n        } else {\r\n            sendOralizedQuery(true);\r\n        }\r\n    }\r\n    \r\n    function transfer() private returns (bool) {\r\n        bool success = false;\r\n        \r\n        LogString(\"Starting Transfer\");\r\n        LogSU(\"Transaction Amount\", transactionAmount);\r\n        LogSU(\"Team Balance\", team.balance);\r\n        LogSU(\"Player Balance\", player.balance);\r\n        \r\n        if(team.balance >= transactionAmount) {\r\n            LogString(\"Team has enough funds to proceed\");\r\n\r\n            if (!player.send(transactionAmount)) {\r\n                LogString(\"Team has Failed to send funds as a lack of gas required\");\r\n                revert();\r\n            } else {\r\n                LogString(\"Transfer is Successful!\");\r\n                success = true;\r\n            }\r\n            \r\n            LogSU(\"Team Balance\", team.balance);\r\n            LogSU(\"Player Balance\", player.balance);\r\n        } else {\r\n            LogString(\"Team doesn't have enough funds to proceed\");\r\n        }\r\n        \r\n        return success;\r\n    }\r\n    \r\n    function convertStringToBoolean(string value) internal pure returns (bool) {\r\n        bool boolValue = false;\r\n\r\n        if (keccak256(value) == keccak256(\"{\\n  \\\"state\\\": true\\n}\")) boolValue = true;\r\n        \r\n        return boolValue;\r\n    }\r\n}   ",
  "sourcePath": "D:\\Projects\\EthereumOraclizedTeamPlayerContract\\contracts\\TeamPlayer.sol",
  "compiler": {
    "name": "solc",
    "version": "0.4.18+commit.9cf6e910.Emscripten.clang"
  },
  "schemaVersion": "1.0.1",
  "updatedAt": "2018-01-28T10:15:38.739Z"
}